{
  "contractName": "Crud",
  "abi": [
    {
      "inputs": [],
      "name": "nextId",
      "outputs": [
        {
          "internalType": "uint256",
          "name": "",
          "type": "uint256"
        }
      ],
      "stateMutability": "view",
      "type": "function"
    },
    {
      "inputs": [
        {
          "internalType": "uint256",
          "name": "",
          "type": "uint256"
        }
      ],
      "name": "player",
      "outputs": [
        {
          "internalType": "uint256",
          "name": "id",
          "type": "uint256"
        },
        {
          "internalType": "string",
          "name": "name",
          "type": "string"
        }
      ],
      "stateMutability": "view",
      "type": "function"
    },
    {
      "inputs": [
        {
          "internalType": "string",
          "name": "name",
          "type": "string"
        }
      ],
      "name": "createPlayer",
      "outputs": [],
      "stateMutability": "nonpayable",
      "type": "function"
    },
    {
      "inputs": [
        {
          "internalType": "uint256",
          "name": "id",
          "type": "uint256"
        }
      ],
      "name": "readPlayer",
      "outputs": [
        {
          "internalType": "uint256",
          "name": "",
          "type": "uint256"
        },
        {
          "internalType": "string",
          "name": "",
          "type": "string"
        }
      ],
      "stateMutability": "view",
      "type": "function"
    },
    {
      "inputs": [
        {
          "internalType": "uint256",
          "name": "id",
          "type": "uint256"
        },
        {
          "internalType": "string",
          "name": "_name",
          "type": "string"
        }
      ],
      "name": "uploadPlayer",
      "outputs": [],
      "stateMutability": "nonpayable",
      "type": "function"
    },
    {
      "inputs": [
        {
          "internalType": "uint256",
          "name": "id",
          "type": "uint256"
        }
      ],
      "name": "deletePlayer",
      "outputs": [],
      "stateMutability": "nonpayable",
      "type": "function"
    }
  ],
  "bytecode": "0x60806040526001805534801561001457600080fd5b50610c5d806100246000396000f3fe608060405234801561001057600080fd5b50600436106100625760003560e01c806361b8ce8c146100675780637059194e14610085578063795140d7146100a15780639e0551c6146100bd578063a3f6b80b146100ee578063b586a7401461011f575b600080fd5b61006f61013b565b60405161007c9190610515565b60405180910390f35b61009f600480360381019061009a9190610570565b610141565b005b6100bb60048036038101906100b691906106e3565b61018f565b005b6100d760048036038101906100d29190610570565b6101d4565b6040516100e59291906107be565b60405180910390f35b61010860048036038101906101039190610570565b610290565b6040516101169291906107be565b60405180910390f35b610139600480360381019061013491906107ee565b610382565b005b60015481565b600061014c82610401565b90506000818154811061016257610161610837565b5b9060005260206000209060020201600080820160009055600182016000610189919061049f565b50505050565b600061019a83610401565b905081600082815481106101b1576101b0610837565b5b906000526020600020906002020160010190816101ce9190610a72565b50505050565b600081815481106101e457600080fd5b906000526020600020906002020160009150905080600001549080600101805461020d90610895565b80601f016020809104026020016040519081016040528092919081815260200182805461023990610895565b80156102865780601f1061025b57610100808354040283529160200191610286565b820191906000526020600020905b81548152906001019060200180831161026957829003601f168201915b5050505050905082565b60006060600061029f84610401565b9050600081815481106102b5576102b4610837565b5b906000526020600020906002020160000154600082815481106102db576102da610837565b5b90600052602060002090600202016001018080546102f890610895565b80601f016020809104026020016040519081016040528092919081815260200182805461032490610895565b80156103715780601f1061034657610100808354040283529160200191610371565b820191906000526020600020905b81548152906001019060200180831161035457829003601f168201915b505050505090509250925050915091565b6000604051806040016040528060015481526020018381525090806001815401808255809150506001900390600052602060002090600202016000909190919091506000820151816000015560208201518160010190816103e39190610a72565b505050600160008154809291906103f990610b73565b919050555050565b600080600090505b60008054905081101561045e57826000828154811061042b5761042a610837565b5b9060005260206000209060020201600001540361044b578091505061049a565b808061045690610b73565b915050610409565b506040517f08c379a000000000000000000000000000000000000000000000000000000000815260040161049190610c07565b60405180910390fd5b919050565b5080546104ab90610895565b6000825580601f106104bd57506104dc565b601f0160209004906000526020600020908101906104db91906104df565b5b50565b5b808211156104f85760008160009055506001016104e0565b5090565b6000819050919050565b61050f816104fc565b82525050565b600060208201905061052a6000830184610506565b92915050565b6000604051905090565b600080fd5b600080fd5b61054d816104fc565b811461055857600080fd5b50565b60008135905061056a81610544565b92915050565b6000602082840312156105865761058561053a565b5b60006105948482850161055b565b91505092915050565b600080fd5b600080fd5b6000601f19601f8301169050919050565b7f4e487b7100000000000000000000000000000000000000000000000000000000600052604160045260246000fd5b6105f0826105a7565b810181811067ffffffffffffffff8211171561060f5761060e6105b8565b5b80604052505050565b6000610622610530565b905061062e82826105e7565b919050565b600067ffffffffffffffff82111561064e5761064d6105b8565b5b610657826105a7565b9050602081019050919050565b82818337600083830152505050565b600061068661068184610633565b610618565b9050828152602081018484840111156106a2576106a16105a2565b5b6106ad848285610664565b509392505050565b600082601f8301126106ca576106c961059d565b5b81356106da848260208601610673565b91505092915050565b600080604083850312156106fa576106f961053a565b5b60006107088582860161055b565b925050602083013567ffffffffffffffff8111156107295761072861053f565b5b610735858286016106b5565b9150509250929050565b600081519050919050565b600082825260208201905092915050565b60005b8381101561077957808201518184015260208101905061075e565b60008484015250505050565b60006107908261073f565b61079a818561074a565b93506107aa81856020860161075b565b6107b3816105a7565b840191505092915050565b60006040820190506107d36000830185610506565b81810360208301526107e58184610785565b90509392505050565b6000602082840312156108045761080361053a565b5b600082013567ffffffffffffffff8111156108225761082161053f565b5b61082e848285016106b5565b91505092915050565b7f4e487b7100000000000000000000000000000000000000000000000000000000600052603260045260246000fd5b7f4e487b7100000000000000000000000000000000000000000000000000000000600052602260045260246000fd5b600060028204905060018216806108ad57607f821691505b6020821081036108c0576108bf610866565b5b50919050565b60008190508160005260206000209050919050565b60006020601f8301049050919050565b600082821b905092915050565b6000600883026109287fffffffffffffffffffffffffffffffffffffffffffffffffffffffffffffffff826108eb565b61093286836108eb565b95508019841693508086168417925050509392505050565b6000819050919050565b600061096f61096a610965846104fc565b61094a565b6104fc565b9050919050565b6000819050919050565b61098983610954565b61099d61099582610976565b8484546108f8565b825550505050565b600090565b6109b26109a5565b6109bd818484610980565b505050565b5b818110156109e1576109d66000826109aa565b6001810190506109c3565b5050565b601f821115610a26576109f7816108c6565b610a00846108db565b81016020851015610a0f578190505b610a23610a1b856108db565b8301826109c2565b50505b505050565b600082821c905092915050565b6000610a4960001984600802610a2b565b1980831691505092915050565b6000610a628383610a38565b9150826002028217905092915050565b610a7b8261073f565b67ffffffffffffffff811115610a9457610a936105b8565b5b610a9e8254610895565b610aa98282856109e5565b600060209050601f831160018114610adc5760008415610aca578287015190505b610ad48582610a56565b865550610b3c565b601f198416610aea866108c6565b60005b82811015610b1257848901518255600182019150602085019450602081019050610aed565b86831015610b2f5784890151610b2b601f891682610a38565b8355505b6001600288020188555050505b505050505050565b7f4e487b7100000000000000000000000000000000000000000000000000000000600052601160045260246000fd5b6000610b7e826104fc565b91507fffffffffffffffffffffffffffffffffffffffffffffffffffffffffffffffff8203610bb057610baf610b44565b5b600182019050919050565b7f506c6179657220646f6573206e6f742065786973740000000000000000000000600082015250565b6000610bf160158361074a565b9150610bfc82610bbb565b602082019050919050565b60006020820190508181036000830152610c2081610be4565b905091905056fea2646970667358221220cb47d5f4a6b919d0ff07ca8590b6791a25a74b40b9634df82823ff2e832ac55b64736f6c63430008110033",
  "immutableReferences": {},
  "source": "pragma solidity >=0.7.0 <0.9.0;\r\n\r\ncontract Crud{\r\n\r\n    struct Player{ //chua cac du lieu nguoi dung\r\n        uint256 id;\r\n        string name;\r\n    }\r\n\r\n    Player[] public player; //luu tru player, mang y nghia 1 kieu du lieu, luu tru duoi dang array\r\n\r\n    uint256 public nextId = 1;\r\n\r\n    function createPlayer(string memory name) public {\r\n        player.push(Player(nextId, name)); //push vao array\r\n        nextId++; //cong them id moi\r\n    }\r\n\r\n    function readPlayer(uint256 id) public view returns (uint256, string memory) {\r\n        uint256 i = loopId(id);\r\n        return (player[i].id, player[i].name);\r\n    }\r\n\r\n    function uploadPlayer(uint256 id, string memory _name) public {\r\n        uint256 i = loopId(id);\r\n        player[i].name = _name;\r\n    }\r\n\r\n    function deletePlayer(uint256 id) public {\r\n        uint256 i = loopId(id);\r\n        delete(player[i]);\r\n    }\r\n\r\n    function loopId(uint256 id) internal view returns (uint256 _id){\r\n        for(uint256 i = 0; i < player.length; i++){\r\n            if(player[i].id == id){\r\n                return i;\r\n            }\r\n        }\r\n        revert(\"Player does not exist\");\r\n    }\r\n}",
  "sourcePath": "C:\\D\\CRUD\\contracts\\Crud.sol",
  "compiler": {
    "name": "solc",
    "version": "0.8.17+commit.8df45f5f.Emscripten.clang"
  },
  "schemaVersion": "3.4.11",
  "updatedAt": "2023-04-22T08:59:33.012Z",
  "devdoc": {
    "kind": "dev",
    "methods": {},
    "version": 1
  },
  "userdoc": {
    "kind": "user",
    "methods": {},
    "version": 1
  }
}